:020000040000fa
:080000000001040000000000f3
:020000040000fa
:100200000f80200000bf20000001880000000000d7
:100210000c000700602120000100200011000700f1
:10022000000020000000e000020032000000020098
:1002300000000000f0010200000000000040da00b1
:100240000000fe004440a900000020000000e00083
:100250000300320000002000a00188004440a800f4
:100260000000060091018800800078000000eb008b
:1002700015003700e280400032a0b4009101ba00be
:10028000e280400032a0b4009102ba00e280400057
:1002900032a0b4000002eb00472bde00f507b200ed
:1002a000602ce10004003a000059eb008301e900f2
:1002b000fdff3e00040037006128e100010032002c
:1002c0000082eb00040007001101ba000200e00008
:1002d000e8ff3a00000006003159ba008301e90046
:1002e0000c0032002159ba008301e90008003200f5
:1002f0000400e00003003a00e280400032a0b400b5
:10030000f5ff370011d9ba008301e900faff3a007e
:100310008100e800e180400032a0b4000000060047
:100320008000780023c2bf000028a30001003a002b
:10033000f10fb200211188000000060020c2bf00aa
:100340008080eb000008a3000800320020c2a90052
:1003500023c2bf000028a300020032002111800048
:100360000200370021118000f10fb2000100780077
:040370000000060083
:020000040000fa
:0200000401f009
:04000000fff9000004
:020000040000fa
:0200000401f009
:04000400ff7f00007a
:020000040000fa
:0200000401f009
:040008007c7f0000f9
:020000040000fa
:0200000401f009
:04001400ffff0000ea
:020000040000fa
:100008001802000018020000180200001802000080
:100018001802000018020000180200001802000070
:100028001802000018020000180200001802000060
:100038001802000018020000180200001802000050
:100048001802000018020000180200001802000040
:100058001802000018020000180200001802000030
:100068001802000018020000180200001802000020
:100078001802000018020000180200001802000010
:100088001802000018020000180200001802000000
:1000980018020000180200001802000018020000f0
:1000a80018020000180200001802000018020000e0
:1000b80018020000180200001802000018020000d0
:1000c80018020000180200001802000018020000c0
:1000d80018020000180200001802000018020000b0
:1000e80018020000180200001802000018020000a0
:0800f8001802000018020000cc
:020000040000fa
:10010800180200001802000018020000180200007f
:10011800180200001802000018020000180200006f
:10012800180200001802000018020000180200005f
:10013800180200001802000018020000180200004f
:10014800180200001802000018020000180200003f
:10015800180200001802000018020000180200002f
:10016800180200001802000018020000180200001f
:10017800180200001802000018020000180200000f
:1001880018020000180200001802000018020000ff
:1001980018020000180200001802000018020000ef
:1001a80018020000180200001802000018020000df
:1001b80018020000180200001802000018020000cf
:1001c80018020000180200001802000018020000bf
:1001d80018020000180200001802000018020000af
:1001e800180200001802000018020000180200009f
:0801f8001802000018020000cb
:020000040000fa
:100374000000fa008500a9008d00a90021a2a900af
:1003840020c2a90023c2a90023a2a9002362a900b4
:100394002342a8002322a90022c2a9002302a80004
:1003a40022e2a90022a2a800212220009140780084
:1003b40030ceb30000c0600022e2b700212220004a
:1003c40091407800c0cfb30000c0600022e2b700c3
:1003d40021e2a8000080fa00000006000200fa00f2
:1003e400e3ff070010012000ccff070020c2bf007c
:1003f400624060000004e000fcff3a0020c2bf003d
:10040400614060000004e000fcff3200caff070006
:10041400000f780000000000000000000000eb0066
:080424000080fa000000060050
:020000040000fa
:04042c0000000000cc
:020000040000fa
:040430000000fe00ca
:00000001FF
