:020000040000fa
:080000000001040000000000f3
:020000040000fa
:100200000f80200000bf20000001880000000000d7
:100210000c000700c04c2000010020001100070066
:10022000000020000000e000020032000000020098
:100230000000000064040200000000000040da003a
:100240000000fe004440a900000020000000e00083
:100250000300320000002000a00188004440a800f4
:100260000000060091018800800078000000eb008b
:1002700015003700e280400032a0b4009101ba00be
:10028000e280400032a0b4009102ba00e280400057
:1002900032a0b4000002eb00472bde00f507b200ed
:1002a000602ce10004003a000059eb008301e900f2
:1002b000fdff3e00040037006128e100010032002c
:1002c0000082eb00040007001101ba000200e00008
:1002d000e8ff3a00000006003159ba008301e90046
:1002e0000c0032002159ba008301e90008003200f5
:1002f0000400e00003003a00e280400032a0b400b5
:10030000f5ff370011d9ba008301e900faff3a007e
:100310008100e800e180400032a0b4000000060047
:10032000889fbe008a9fbe00010578000100e000a2
:100330000400350008003c000000e000200032000e
:100340000500370060001000e080180002003b004c
:1003500001f02c001a0037000004be006011b80044
:100360006b0920000982cf00020039000882cf000b
:100370000441b000694252000e00320008003b0008
:1003800082817100610164008904d1000884d30076
:100390008b05e8000442e800f9ff3a000500370049
:1003a0000804440089844c008b05e9000442e900fc
:1003b000fbff3a00990007000af0a70001f0a00037
:1003c0004f05be004f04be000000060003f0a2006f
:1003d000889fbe008a9fbe008c1f7800b500070072
:1003e000bc0033006450e1004f0032006420e100a3
:1003f0005200320003826c0007003b000905d00068
:100400000306d000820f54000c065d000200390084
:1004100002003200890178000306780085825500c9
:1004200004003d000003fd008103fd008502ea0099
:100430008b854200840f720002003b0060001000b8
:10044000e08018006011b8000005eb007a28e10098
:100450000a00390006007800c75ddd00f707b2002a
:10046000878075002d003700828171000a017800b5
:10047000610560008180d1000080d3008502e90021
:10048000f9ff3b00060440008784480002003b005f
:1004900060041400e0841c000988a30007003200f7
:1004a0008a81710082817100610164008904d10038
:1004b0000884d3008b05e800170037000978a300f3
:1004c00013003a000b00e000130034008b05e90034
:1004d0000804440089844c000a4474000978a3008d
:1004e0000d003a000b00e000070034008b05e90026
:1004f0000804440089844c0001003a000b002000ed
:100500000978a300f7ff32000001eb00020037007a
:10051000828171000a017800400007000cf0a700fa
:1005200001f0a000740037006420e10002003a00ee
:10053000838f6c00740033000801be000200be000f
:100540006d003700889fbe008a9fbe008c1f780018
:10055000580007005f00330003866c006450e10020
:10056000240032006420e100270032006150e100e5
:10057000220032006120e100210032008b85420020
:10058000eb07b1000134b800003ab800080442009b
:1005900089844a00013ab8000030b80088804000e1
:1005a00009014a0004003300000040008180480037
:1005b000020149008b05e900c909dd0083017000d3
:1005c0000100320013002000c814de004814dd00d2
:1005d0004709de001200b200c808de00088470007f
:1005e0000e00070001f0a1000cf0a70001f0a00030
:1005f000410037006120e100430032000801be00e5
:100600000200be00f7ff37006150e100fcff3a0036
:100610003d003700f4ff2f003e003700810020002e
:10062000618055000b003d000b00200061fe2f0093
:100630000100e1001d00340082817100610164004d
:100640008904d1000884d3000000e800faff3a00d2
:10065000710020006100640003007000020060006f
:100660000900320061044400e0844c000988a500c0
:10067000050032008b05e8006808e10002003a003e
:100680008904d1000884d300f20f20000258e10051
:1006900005003d00c75ddd00f907b20089807500e7
:1006a00008007800000006000bf827008b00780097
:1006b000000005000004be00310007000003be007a
:1006c0000405be000200be002d000700844f750027
:1006d000000006000200be006450e1000500360084
:1006e0006420e100020036000968a30001003a001e
:1006f0000800be000160a0004f0678004f05be0054
:100700004f04be0000000600f0ff2f00f1ff27009d
:10071000f9ff3700889fbe008a9fbe00841f7800c3
:10072000e4ff07004f00780011003300f0ff2f00b6
:10073000838f6c0006003b00040565000a00a700db
:100740000800370009f0a60010002000080037005c
:10075000820f5400838f5c000300390010002000da
:1007600001003e000000200009f0a7000000ea00a0
:100770004f05be004f04be000000e0000000060070
:10078000c70ade00f107b200f50fb2000800320020
:10079000e1cf4200020032000170a00024000500f9
:1007a000810f7000010032000408050044000500bc
:1007b000810f700002003a00140005008502e90074
:1007c0000000400081c04800fcff3b000170a00019
:0407d00024000500fc
:020000040000fa
:0200000401f009
:04000000fff9000004
:020000040000fa
:0200000401f009
:04000400ff7f00007a
:020000040000fa
:0200000401f009
:040008007c7f0000f9
:020000040000fa
:0200000401f009
:04001400ffff0000ea
:020000040000fa
:10000800ce040000ce040000ce040000ce040000a0
:10001800ce040000ce040000ce040000ce04000090
:10002800ce040000ce040000ce040000ce04000080
:10003800ce040000ce040000ce040000ce04000070
:10004800ce040000ce040000ce040000ce04000060
:10005800ce040000ce040000ce040000ce04000050
:10006800ce040000ce040000ce040000ce04000040
:10007800ce040000ce040000ce040000ce04000030
:10008800ce040000ce040000ce040000ce04000020
:10009800ce040000ce040000ce040000ce04000010
:1000a800ce040000ce040000ce040000ce04000000
:1000b800ce040000ce040000ce040000ce040000f0
:1000c800ce040000ce040000ce040000ce040000e0
:1000d800ce040000ce040000ce040000ce040000d0
:1000e800ce040000ce040000ce040000ce040000c0
:0800f800ce040000ce0400005c
:020000040000fa
:10010800ce040000ce040000ce040000ce0400009f
:10011800ce040000ce040000ce040000ce0400008f
:10012800ce040000ce040000ce040000ce0400007f
:10013800ce040000ce040000ce040000ce0400006f
:10014800ce040000ce040000ce040000ce0400005f
:10015800ce040000ce040000ce040000ce0400004f
:10016800ce040000ce040000ce040000ce0400003f
:10017800ce040000ce040000ce040000ce0400002f
:10018800ce040000ce040000ce040000ce0400001f
:10019800ce040000ce040000ce040000ce0400000f
:1001a800ce040000ce040000ce040000ce040000ff
:1001b800ce040000ce040000ce040000ce040000ef
:1001c800ce040000ce040000ce040000ce040000df
:1001d800ce040000ce040000ce040000ce040000cf
:1001e800ce040000ce040000ce040000ce040000bf
:0801f800ce040000ce0400005b
:020000040000fa
:1007d4000000fa008560a9008d60a900b0ff2f0019
:1007e400401588000000eb0050158800a1a2a90064
:1007f400112a200091407800c0cfb30000c06000ef
:100804000004a000a1e2b700012a20009140780072
:1008140000ceb30000c07000a0e2b700a042a9005f
:10082400a022a900a3c2bf007f406000a3e2b700da
:10083400a342a900212a20009140780030ccb300c3
:1008440000c06000a2e2b700a222a900a202a9008f
:10085400512a20009140780000ceb30000c060000f
:100864000004a000a5e2b700a4e2a900412a2000e8
:100874009140780000ccb30000c060000014a000d8
:10088400a4e2b700a782a900712a20009140780051
:1008940000cfb30000c06000a7e2b700a682a900a1
:1008a400612a20009140780000cfb30000c06000ae
:1008b4000014a000a6e2b700a1e2a8000080fa009c
:1008c400000006000c00fa00881f78006000b800e1
:1008d40020079800310798006000b800008fbe0020
:1008e4000000eb0090168800b9ff0700a022a800c2
:1008f400a0c2bf00614060000004e000fcff3200c1
:10090400081480006140b90084fe07004007980085
:10091400510798000800e00007003d000200200095
:10092400037824004e009000de009000a7fe07002c
:1009340040079800510798004e009000de00900098
:1009440020079800310798002e009000be00900008
:10095400629f200003aa2300f9fe0700008fbe0057
:1009640002002000030424001e00be0028ff07002c
:100974000000e00001003c000200370010002000ed
:10098400b01688000000eb004f0478000080fa00e5
:040994000000060059
:020000040000fa
:04099800000000005b
:020000040000fa
:04099c000000fe0059
:00000001FF
