:020000040000fa
:080000000001040000000000f3
:020000040000fa
:100200000f80200000bf20000001880000000000d7
:100210000c000700e027200001002000110007006b
:10022000000020000000e000020032000000020098
:1002300000000000ba010200000000000040da00e7
:100240000000fe004440a900000020000000e00083
:100250000300320000002000a00188004440a800f4
:100260000000060091018800800078000000eb008b
:1002700015003700e280400032a0b4009101ba00be
:10028000e280400032a0b4009102ba00e280400057
:1002900032a0b4000002eb00472bde00f507b200ed
:1002a000602ce10004003a000059eb008301e900f2
:1002b000fdff3e00040037006128e100010032002c
:1002c0000082eb00040007001101ba000200e00008
:1002d000e8ff3a00000006003159ba008301e90046
:1002e0000c0032002159ba008301e90008003200f5
:1002f0000400e00003003a00e280400032a0b400b5
:10030000f5ff370011d9ba008301e900faff3a007e
:100310008100e800e180400032a0b4000000060047
:100320008000780023c2bf000028a30001003a002b
:10033000f10fb200211188000000060020c2bf00aa
:100340008080eb000008a3000800320020c2a90052
:1003500023c2bf000028a300020032002111800048
:100360000200370021118000f10fb2000100780077
:040370000000060083
:020000040000fa
:0200000401f009
:04000000fff9000004
:020000040000fa
:0200000401f009
:04000400ff7f00007a
:020000040000fa
:0200000401f009
:040008007cff000079
:020000040000fa
:0200000401f009
:04001400ffff0000ea
:020000040000fa
:1000080080020000800200008002000080020000e0
:1000180080020000800200008002000080020000d0
:1000280080020000800200008002000080020000c0
:1000380080020000800200008002000080020000b0
:1000480080020000800200008002000080020000a0
:100058008002000080020000800200008002000090
:100068008002000080020000800200008002000080
:100078008002000080020000800200008002000070
:100088008002000080020000800200008002000060
:100098008002000080020000800200008002000050
:1000a8008002000080020000800200008002000040
:1000b8008002000080020000800200008002000030
:1000c8008002000080020000800200008002000020
:1000d8008002000080020000800200008002000010
:1000e8008002000080020000800200008002000000
:0800f8008002000080020000fc
:020000040000fa
:1001080080020000800200008002000080020000df
:1001180080020000800200008002000080020000cf
:1001280080020000800200008002000080020000bf
:1001380080020000800200008002000080020000af
:10014800800200008002000080020000800200009f
:10015800800200008002000080020000800200008f
:10016800800200008002000080020000800200007f
:10017800800200008002000080020000800200006f
:10018800800200008002000080020000800200005f
:10019800800200008002000080020000800200004f
:1001a800800200008002000080020000800200003f
:1001b800800200008002000080020000800200002f
:1001c800800200008002000080020000800200001f
:1001d800800200008002000080020000800200000f
:1001e80080020000800200008002000080020000ff
:0801f8008002000080020000fb
:020000040000fa
:100374000200fa0045000700310007000000eb000e
:100384009016880010002000b0168800000c200091
:10039400000f7800001020001300070005e1a800fa
:1003a4000c0037000108800010088000808f500086
:1003b40007003a00f00320009e0f100004003600ee
:1003c4001e0078000800070000fc2f001e0f4000ec
:1003d4008460a90084c0bf00684060000004e0009d
:1003e400f0ff3a00edff37000200fa00000f78003a
:1003f4000000eb00b01688001e007800c7ff07005d
:1004040020c2bf00624060000004e000fcff3a002c
:1004140020c2bf00614060000004e000fcff320025
:10042400c5ff0700000f7800000000000000000076
:1004340010002000b01688000080fa0000000600ba
:100444000000fa000000eb000008880005e1a900a4
:1004540005a1a90004c1a800411020009140780022
:10046400f0ccb30000c0600004e1b7000441a9006f
:100474000421a9008460a9008c60a9005000200018
:10048400100888000080fa00000006000000fa004e
:100494008500a9008d00a90021a2a90020c2a900fd
:1004a40023c2a90023a2a9002362a9002342a80011
:1004b4002322a90022c2a9002302a80022e2a90043
:1004c40022a2a800212220009140780030ceb3005f
:1004d40000c0600022e2b700212220009140780091
:1004e400c0cfb30000c0600022e2b70021e2a80040
:0804f4000080fa000000060080
:020000040000fa
:0404fc0000000000fc
:020000040000fa
:040500000000fe00f9
:00000001FF
